:02000004600892
:10000000000002200503086089030860952B086042
:100010008D0308608F0308609103086000000000F2
:1000200000000000000000000000000093030860D2
:100030009503086000000000970308600D05086044
:10004000D5260860DD260860E5260860ED260860F4
:10005000F5260860FD260860052708600D27086062
:10006000152708601D270860252708602D270860D0
:10007000352708603D270860452708604D27086040
:10008000552708605D270860652708606D270860B0
:10009000752708607D270860852708608D27086020
:1000A000952708609D270860A5270860AD27086090
:1000B000B5270860BD270860C5270860CD27086000
:1000C000D5270860DD270860E5270860ED27086070
:1000D000F5270860FD270860052808600D280860DE
:1000E000152808601D280860252808602D2808604C
:1000F000352808603D280860452808604D280860BC
:10010000552808605D280860652808606D2808602B
:10011000752808607D280860852808608D2808609B
:10012000952808609D280860A5280860AD2808600B
:10013000B5280860BD280860C5280860CD2808607B
:10014000D5280860DD280860E5280860ED280860EB
:10015000F5280860FD280860052908600D29086059
:10016000152908601D290860252908602D290860C7
:10017000352908603D290860452908604D29086037
:10018000552908605D290860652908606D290860A7
:10019000752908607D290860852908608D29086017
:1001A000952908609D290860A5290860AD29086087
:1001B000B5290860BD290860C5290860CD290860F7
:1001C000D5290860DD290860E5290860ED29086067
:1001D000F5290860FD290860052A08600D2A0860D5
:1001E000152A08601D2A0860252A08602D2A086043
:1001F000352A08603D2A0860452A08604D2A0860B3
:10020000552A08605D2A0860652A08606D2A086022
:10021000752A08607D2A0860852A08608D2A086092
:10022000952A08609D2A0860A52A0860AD2A086002
:10023000B52A0860BD2A0860C52A0860CD2A086072
:10024000D52A0860DD2A0860E52A0860ED2A0860E2
:10025000F52A0860FD2A0860052B08600D2B086050
:10026000152B08601D2B0860252B08602D2B0860BE
:10027000352B08603D2B0860452B08604D2B08602E
:10028000552B08605D2B0860652B08606D2B08609E
:10029000752B08607D2B0860852B08608D2B08600E
:1002A0004437086000000020040000004437086064
:1002B000000000000000000044370860000020201B
:1002C00000000000443708600000008000000000CB
:1002D000443708600000E0810000000004000020B6
:1002E00014010000000000000000000000002020B9
:1002F0000000000000000080000000000000E0811D
:100300000000000072B6104B83F3088800F0BCFCBC
:100310000E4B07E003F10C049A685968186800F066
:100320001BF823460A4A9342F4D306E01C46596858
:1003300054F8080B00F01FF82346064A9342F5D301
:1003400062B602F0FDFDFEE700000220A002086098
:10035000DC02086004030860002393420AD210B450
:1003600050F8044B41F8044B04339342F8D35DF842
:10037000044B70477047002303E0002240F8042B31
:1003800004338B42F9D37047FEE7FEE7FEE7FEE752
:10039000FEE7FEE7FEE7FEE7FEE7FEE780B582B098
:1003A00000AF78607968024801F06BFE00BEFDE79F
:1003B000B833086080B584B000AF786039607B687E
:1003C000002BFCD03B68002B01D1002313E00C4B29
:1003D0001B68002B01D100230DE03A6879680948B9
:1003E00002F07BFC0346FB81FB89002B01D13B68BB
:1003F00001E04FF0FF3318461037BD4680BD00BF07
:10040000240000201C00002080B5A4B000AF78605C
:1004100039600023C7F888300023C7F88C300023E8
:10042000BB6007F10C037C220021184602F091FD0D
:100430000E4B1B68002B12D007F108020C4B3968D9
:10044000786801F0F1FFC7F88800D7F8882007F135
:10045000080311461846FFF7ADFFC7F88C00D7F820
:100460008C3018469037BD4680BD00BF2400002068
:100470001D20086080B483B000AF03463960FB8064
:10048000B7F90630002B0ADB3B68DAB20C49B7F942
:1004900006301201D2B20B4483F800230AE03B6815
:1004A000DAB20849FB8803F00F03043B1201D2B211
:1004B0000B441A7600BF0C37BD465DF8047B7047CD
:1004C00000E100E000ED00E080B582B000AF7860B0
:1004D0007B68013BB3F1807F01D301230FE00A4A1F
:1004E0007B68013B53600F214FF0FF30FFF7C2FFE5
:1004F000054B00229A60044B07221A60002318461D
:100500000837BD4680BD00BF10E000E080B400AFFA
:10051000064B1B68002B04D0044B1B68013B034AAD
:10052000136000BFBD465DF8047B704728000020C3
:1005300080B483B000AF7860074A7B68136000BF67
:10054000054B1B68002BFBD100BF00BF0C37BD461D
:100550005DF8047B704700BF2800002080B500AF25
:1005600000F0B2FD02F0E6FC02F077FC00F02EFC99
:10057000134B1B68134AA2FB03239B091846FFF782
:10058000A3FF0346002B00D0FEE74FF47A70FFF77D
:10059000CFFF0D4B1B78DBB2002B08D000220921C6
:1005A0000A4800F0FBF9084B00221A70EDE701221F
:1005B0000921064800F0F2F9034B01221A70E4E722
:1005C00000000020D34D62101401002000801B4069
:1005D00080B582B000AF0346FB71FB7983F0010365
:1005E000DBB2002B02D11348FFF7D8FE124B4FF0BD
:1005F0008042C3F8582100BF0F4BD3F8703203F488
:100600008033002BF8D00C4B4FF48032C3F85421C8
:1006100000BF094BD3F8503103F40043002BF8D04E
:10062000054B4FF48032C3F8582100BF0837BD4650
:1006300080BD00BFCC33086000800D4080B483B023
:1006400000AF0346FB71FB79002B04D1074B10224E
:10065000C3F8742203E0054B1022C3F8782200BFD0
:100660000C37BD465DF8047B704700BF00800D402D
:1006700080B400AF064BD3F87032054A43F0010353
:10068000C2F8703200BFBD465DF8047B704700BF02
:1006900000800D4080B483B000AF7860154B1B68BC
:1006A00023F4E0327B681B799B039BB21343114A0E
:1006B00043F4803313600F4B1A680F4B13407A6872
:1006C000126802F07F0213430A4A43F40053136096
:1006D00000BF084B1B68002BFBDA064B1B68054A62
:1006E00023F48033136000BF0C37BD465DF8047BF4
:1006F000704700BF00800D4080CFFFFF80B483B003
:1007000000AF7860224B1B6B23F4E0327B681B7BCD
:100710009B039BB213431E4A43F4803313631C4B69
:100720001A6B1C4B13407A68127802F001021343D3
:10073000174A43F4005313637B685B68144A23F041
:10074000404313657B689B68114A23F0404313665E
:100750007B685B8AC3F30E027B681B7CDB039BB266
:100760001A437B68DB891B04094913430B6400BFF0
:10077000074B1B6B002BFBDA054B1B6B044A23F466
:100780008033136300BF0C37BD465DF8047B7047B0
:1007900000800D40FECFFFFF80B400AF034B00226E
:1007A0001A6200BFBD465DF8047B704700800D40B3
:1007B00080B400AF044B4FF480521A6700BFBD46AF
:1007C0005DF8047B704700BF00800D4080B400AF2F
:1007D000044B4FF48052C3F8E02000BFBD465DF8E3
:1007E000047B704700800D4080B485B000AF0346A5
:1007F0000A46FB711346BB71FB79FB60124BD3F8C1
:100800000021FB68DB00BF2101FA03F3DB43134047
:10081000BB60FB68DB0080229A400B49BB68134336
:10082000C1F80031BB7903F03F02FB68DB009A405E
:100830000549BB681343C1F8003100BF1437BD46FA
:100840005DF8047B704700BF00800D4080B586B026
:1008500000AF03460A46FB8013467B71B7F90630AA
:100860001B0A7B61FB8803F01F033B617B69062B3E
:1008700002D90C48FFF792FD7B699A000A4B13449A
:10088000FB6003223B6902FA03F17A793B6902FAC1
:1008900003F31A46F86802F093F900BF1837BD4613
:1008A00080BD00BF0037086068C00F4080B584B0CD
:1008B00000AF78600023FB6009E00D4AFB6852F846
:1008C00023307A689A4206D0FB680133FB60FB68EC
:1008D000052BF2D900E000BFFB68052B02D90548C3
:1008E000FFF75CFDFB6818461037BD4680BD00BFB2
:1008F000F03308601434086080B586B000AFF8604B
:10090000B9607A60F868FFF7D1FF78617B69052BE1
:100910000DD8214A7B6932F91330B3F1FF3F06D07D
:100920001D4A7B6932F91330184602F071F9FB68F1
:100930005A690121BB6801FA03F3DB431A40FB68E3
:100940005A617B681B78002B0AD1FB685A68012129
:10095000BB6801FA03F3DB431A40FB685A600FE0FF
:100960007B685B781A46B968F86800F017F8FB688E
:100970005A680121BB6801FA03F31A43FB685A6005
:100980007B689B781A46B968F86802F050F900BF96
:100990001837BD4680BD00BF0834086080B584B0FC
:1009A00000AFF860B9601346FB71BB681F2B02D91A
:1009B0000B48FFF7F3FCFB79002B06D10122BB6843
:1009C0009A40FB68C3F8882005E00122BB689A4082
:1009D000FB68C3F8842000BF1037BD4680BD00BF50
:1009E0004834086080B487B000AFF860B96013463F
:1009F000FB71BB683B61FB68DA690121BB6801FAE6
:100A000003F3DB431A40FB68DA61BB680F2B03D8A2
:100A1000FB680C337B6105E0FB6810337B613B694D
:100A2000103B3B61FB79013B042B52D801A252F8E9
:100A300023F000BF490A0860610A0860850A08605F
:100A4000A90A0860BF0A08607B691A683B695B00F5
:100A5000032101FA03F3DB431A407B691A6039E092
:100A60007B691A683B695B00032101FA03F3DB43EE
:100A70001A403B695B00012101FA03F31A437B69C9
:100A80001A6027E07B691A683B695B00032101FA61
:100A900003F3DB431A403B695B00022101FA03F3D5
:100AA0001A437B691A6015E07B691A683B695B0031
:100AB000032101FA03F31A437B691A600AE0FB6819
:100AC000DA690121BB6801FA03F31A43FB68DA61B2
:100AD00000E000BF00BF1C37BD465DF8047B7047D7
:100AE00080B586B000AFF860B9607A60BB68002B53
:100AF00002D11448FFF752FCBB687B617B683B6105
:100B000011E000BFFB685B6903F40003002BF9D020
:100B10007B691B781A46FB68DA617B6901337B616C
:100B20003B69013B3B613B69002BEAD100BFFB689D
:100B30005B6903F48003002BF9D0002318461837B3
:100B4000BD4680BD6434086080B500AF054B1B68AE
:100B5000054A5268114605489847BFF34F8F00BFBA
:100B600000BF80BD58000020340000200040184025
:100B700080B500AF054B1B68054A926811460548D1
:100B80009847BFF34F8F00BF00BF80BD58000020C3
:100B9000340000200080184080B500AF054B1B6872
:100BA000054AD268114605489847BFF34F8F00BFEA
:100BB00000BF80BD580000203400002000C0184055
:100BC00080B500AF054B1B68054A12691146054800
:100BD0009847BFF34F8F00BF00BF80BD5800002073
:100BE000340000200000194080B500AF054B1B68A1
:100BF000054A5269114605489847BFF34F8F00BF19
:100C000000BF80BD58000020340000200040194083
:100C100080B500AF054B1B68054A9269114605482F
:100C20009847BFF34F8F00BF00BF80BD5800002022
:100C3000340000200080194080B500AF054B1B68D0
:100C4000054AD269114605489847BFF34F8F00BF48
:100C500000BF80BD580000203400002000C01940B3
:100C600080B500AF054B1B68054A126A114605485E
:100C70009847BFF34F8F00BF00BF80BD58000020D2
:100C80003400002000001A4080B500AF484BD3F874
:100C90008830474A43F47003C2F88830444B454AD1
:100CA0009A60454B1B899BB2434A23F001039BB2D8
:100CB0001381424B1B899BB2404A23F001039BB234
:100CC00013813D4B1B889BB203F00403002B07D01C
:100CD000394B1B889BB2384A23F004039BB2138024
:100CE000364B1B889BB203F00403002B07D0334B19
:100CF0001B889BB2314A23F004039BB21380304B14
:100D00001B6803F40053002B03D02D4B2D4A5A606F
:100D100007E02B4B4CF220525A60294B4DF628121B
:100D20005A60274B4FF6FF729A60254B1B6823F0E1
:100D3000A003234A43F020031360234B1B6803F0F6
:100D40000103002B05D0204B1B681F4A23F0010331
:100D50001360174B5B6903F40033B3F5003F22D0F7
:100D6000134B5B6903F40033002B1BD1BFF34F8F90
:100D700000BFBFF36F8F00BF0D4B0022C3F850229E
:100D8000BFF34F8F00BFBFF36F8F00BF084B5B698E
:100D9000074A43F400335361BFF34F8F00BFBFF3E3
:100DA0006F8F00E000BF01F053FF00BF80BD00BFA8
:100DB00000ED00E00000086000800B4000000D40E6
:100DC00000C00B4020C528D910E000E02DE9F04319
:100DD00085B000AF7C4E766906F00076002E49D0D3
:100DE000794B9B6903F44053B3F5005F28D0B3F50A
:100DF000005F31D8002B03D0B3F5805F1DD02BE00E
:100E0000724B1B6903F48033002B0BD06F4B1B69B3
:100E10009B0B03F00303002B01D16D4B00E000237B
:100E2000FB601CE0694B1B6903F00203002B01D03F
:100E3000684B00E0684BFB6011E0654BFB600EE027
:100E4000624B1B6B9B0B03F00303002B01D1604B28
:100E500000E00023FB6002E00023FB6000BF5A4B70
:100E60005B69DB0E03F007030133FA68B2FBF3F3AF
:100E7000FB6099E0554E366806F48036002E0BD0A4
:100E8000524E3668B60B06F00306002E01D1504EC6
:100E900000E00026BE6008E04C4E366806F07F0693
:100EA0004B4C04FB06F67608BE60484E366B06F4E3
:100EB0008036002E0BD0454E366BB60B06F003067F
:100EC000002E01D1424E00E000267E6009E03F4E38
:100ED000366B06F00106002E01D03E4E00E03E4E7D
:100EE0007E603A4E366D4FF0000C32466346384E07
:100EF00006FB03FC002602FB06F66644344CA2FB0C
:100F0000040173181946314B1B6E00229846914616
:100F100042464B4602F04DF902460B467B681344AD
:100F20007B60294B9B6903F44023B3F5402F2ED0FF
:100F3000B3F5402F35D8B3F5002F1AD0B3F5002FF5
:100F40002FD8002B03D0B3F5802F03D029E07B6886
:100F5000FB6029E01D4BD3F800311B0C03F03F036D
:100F60007A68B2FBF3F21346DB0013445B00FB60CC
:100F70001AE0164BD3F8003103F03F037A68B2FB56
:100F8000F3F21346DB0013445B00FB600CE00E4BF6
:100F90001B6903F007030133BA68B2FBF3F3FB608C
:100FA00002E00023FB6000BF074B5B699B0A03F074
:100FB00007030133FA68B2FBF3F3084A136000BF7A
:100FC0001437BD46BDE8F08300C00F4000800D40DF
:100FD00000366E0100A4781F00389C1C0000002021
:100FE00080B586B000AFF860B9607A60FB68002B0E
:100FF00002D11048FFF7D2F9BB68002B02D10E488E
:10100000FFF7CCF97B68002B02D10C48FFF7C6F93B
:10101000FB687B617B691B781A46094B53F82230C9
:101020007A68B9681846FFF75BFD00231846183741
:10103000BD4680BDA8340860D4340860FC34086024
:101040008434086080B483B000AF7860BFF35F8FF2
:1010500000BF0B4A7B6843F001035360094B5B6A96
:10106000084A43F480335362BFF34F8F00BFBFF38E
:101070006F8F00BF00BF0C37BD465DF8047B704723
:1010800090ED00E000ED00E080B400AFBFF35F8FB3
:1010900000BF0B4B5B6A0A4A23F480335362094B4F
:1010A0005B68084A23F001035360BFF34F8F00BF12
:1010B000BFF36F8F00BF00BFBD465DF8047B704774
:1010C00000ED00E090ED00E080B58AB000AF9B4BF2
:1010D0007B629B4A7B6AD31A3B6200233B61994B3C
:1010E0005B6903F40033B3F5003F16D1BFF34F8FB4
:1010F00000BFBFF36F8F00BF924B5B69914A23F42F
:10110000003353618F4B0022C3F85022BFF34F8F3F
:1011100000BFBFF36F8F00BF00BF8A4B5B6903F452
:101120008033B3F5803F4DD1864B0022C3F8842035
:10113000BFF34F8F00BF834B5B69824A23F4803338
:101140005361BFF34F8F00BF7E4A07F10803C2F817
:1011500070327C4A3B1DC2F870327A4A07F10C03A8
:10116000C2F87032BFF34F8F00BFBFF36F8F00BF65
:10117000744BD3F88030FB60FB685B0BC3F30E034A
:10118000BB60FB68DB08C3F309037B60BB685A01E3
:1011900043F6E07313407A6892076A491343C1F833
:1011A00074327B685A1E7A60002BEFD1BB685A1EDE
:1011B000BA60002BE5D1BFF34F8F00BFBFF36F8F35
:1011C00000BF00BFFFF760FF5F4B1022DA605E4B8D
:1011D0005E4A1A615C4B5E4ADA605B4B5D4A1A619B
:1011E000594B5D4ADA60584B5A4A1A61564B5B4A72
:1011F000DA60554B5A4A1A61534B1422DA60524B4B
:10120000584A1A61504B1522DA604F4B564A1A6100
:101210004D4B564ADA604C4B534A1A614A4B544A7A
:10122000DA60494B534A1A61474B534ADA60464BDE
:10123000524A1A6102E03B6901333B613B693A6AF9
:1012400022FA03F3012BF6D83B69002B2DD07B6AE1
:101250003A6AB3FBF2F2396A01FB02F29B1A002BE5
:1012600002D04748FFF79AF83B69012202FA03F3DC
:101270001A463B6A934202D04248FFF78FF83B6917
:10128000042B02D84048FFF789F87B6A23F01F033C
:101290002D4A43F01903D3603B69013B5B0003F027
:1012A0003E022949394B13430B61274B384ADA6018
:1012B000254B384A1A610420FFF7C4FE214B5B69B5
:1012C00003F48033002B67D11E4B0022C3F8842027
:1012D000BFF34F8F00BF1B4BD3F88030FB61FB691E
:1012E0005B0BC3F30E03BB61FB69DB08C3F30903AC
:1012F0007B61BB695A0143F6E07313407A69920738
:1013000010491343C1F860327B695A1E7A61002B81
:10131000EFD1BB695A1EBA61002BE5D1BFF34F8FE5
:1013200000BF084B5B69074A43F480335361BFF346
:101330004F8F00BFBFF36F8F2FE000BF0000E08131
:101340000000008200ED00E090ED00E03F000010A2
:1013500011000080390010031200006013000060CB
:10136000330003063B001003210003031600002096
:10137000170020202300030318000080310003031E
:10138000243508604C350860783508600100080392
:101390001A0000402B00100300BF134B5B6903F4DD
:1013A0000033002B1BD1BFF34F8F00BFBFF36F8FF4
:1013B00000BF0D4B0022C3F85022BFF34F8F00BF78
:1013C000BFF36F8F00BF084B5B69074A43F40033DC
:1013D0005361BFF34F8F00BFBFF36F8F00E000BFBB
:1013E00000BF2837BD4680BD00ED00E080B584B069
:1013F00000AF786039607B689B0EFB607B68DAB277
:101400001F4B13441A687B685B0BC3F30C017B68AA
:101410001B0A03F01F0301FA03F3DB4302EA030193
:101420007B681B0A03F01F033A689A407B685B0BDA
:10143000C3F30C007B681B0A03F01F0300FA03F3DD
:101440001A407B68D8B20E4B0344184641EA0203A7
:101450000360FB68202B02D90A48FEF79FFFFB6858
:10146000202B09D000BF064B9A6CFB6822FA03F3CD
:1014700003F00103002BF6D100BF1037BD4680BD3D
:1014800000C00F409035086080B584B000AF786030
:1014900039607B689B0EFB607B68DAB21F4B13449C
:1014A0001A687B685B0BC3F30C017B681B0A03F0B3
:1014B0001F0301FA03F3DB4302EA03017B681B0A03
:1014C00003F01F033A689A407B685B0BC3F30C0080
:1014D0007B681B0A03F01F0300FA03F31A407B68C2
:1014E000D8B20E4B0344184641EA02030360FB687E
:1014F000202B02D90A48FEF751FFFB68202B09D0A8
:1015000000BF064B9A6C0121FB6801FA03F31340FC
:10151000002BF6D100BF1037BD4680BD00C00F4084
:101520001C36086080B586B000AF03460A46FB80D3
:1015300013467B71B7F906301B0A7B61FB8803F009
:101540001F033B617B69062B02D90C48FEF726FF7F
:101550007B699A000A4B1344FB6003223B6902FA41
:1015600003F17A793B6902FA03F31A46F86801F04D
:10157000E0FB00BF1837BD4680BD00BFA83608603D
:1015800068C00F4080B483B000AF7860044A7B68C5
:10159000136000BF0C37BD465DF8047B704700BF89
:1015A0002C00002080B483B000AF7860044A7B68D0
:1015B000136000BF0C37BD465DF8047B704700BF69
:1015C0003000002080B485B000AFF860B9601346E9
:1015D000FB71BA680C4B1340BB60FB79002B06D043
:1015E000FB685A68BB681A43FB685A6006E0FB68F0
:1015F0005A68BB68DB431A40FB685A6000BF143767
:10160000BD465DF8047B704700F0FFFF80B485B0F5
:1016100000AF78600B46FB701346BB707B689A681E
:101620000A4B1340FB60FB789B0603F08062FB686B
:101630001A43BB781B0403F47F031A437B689A6048
:1016400000BF1437BD465DF8047B7047FFFF00FB09
:1016500080B582B000AF4FF40040FFF7A3FFDA4B34
:10166000D3F8C032D84A43F48033C2F8C032D64BE4
:10167000D3F8C032D44A23F40033C2F8C032D3487E
:10168000FFF780FF0020FEF7A3FFFEF7F1FF012028
:10169000FEF7D4FFCE4B1B6823F0FF03CC4A43F088
:1016A0007F0313600121CB48FFF7A0FE0121CA4848
:1016B000FFF79CFEC94BDB6823F01F03C74A43F0CA
:1016C0001303D36000BFC54B1B6803F00043B3F1A5
:1016D000004FF8D10021C248FFF7D6FE4FF48870C2
:1016E00001F04FFB4FF4847001F04BFB40F21620E9
:1016F00001F047FB4FF4067001F043FB40F20E206F
:1017000001F03FFB0321B748FFF7BEFE0121B648B9
:10171000FFF7BAFE0021B548FFF7B6FE4FF48A7016
:1017200001F02FFB4FF48B7001F02BFB182001F020
:1017300028FB1A2001F025FB4FF4867001F021FBF5
:101740000121AB48FFF7A0FE40F2026001F019FB57
:101750000121A848FFF798FE0021A748FFF746FEA1
:1017600040F2046001F00DFB0121A448FFF78CFE5C
:101770000021A348FFF73AFE4FF4417001F001FB4E
:1017800007214FF21400FFF77FFE00219D48FFF76D
:101790002DFE00219C48FFF729FE40F2022001F0B7
:1017A000F0FA01219948FFF76FFE00219848FFF7F2
:1017B0001DFE4FF4807001F0E4FA4FF4817001F0E7
:1017C000E0FA4FF4827001F0DCFA4FF4837001F01C
:1017D000D8FA04218F48FFF757FE02218E48FFF701
:1017E00005FE162001F0CDFA03218C48FFF74CFED0
:1017F00000218B48FFF7FAFD40F2125001F0C1FAC8
:1018000003218848FFF740FE01218748FFF73CFE8F
:1018100000218648FFF7EAFD40F2145001F0B1FACA
:1018200003218348FFF730FE01218248FFF72CFE99
:1018300000218148FFF7DAFD40F2165001F0A1FACD
:1018400003217E48FFF720FE01217D48FFF71CFEA3
:1018500000217C48FFF7CAFD40F2062001F091FA12
:101860004FF4027001F08DFA40F20A2001F089FA7B
:1018700000217548FFF708FE00217448FFF7B6FD08
:101880000E2001F07EFA122001F07BFA102001F008
:1018900078FA142001F075FA01216D48FFF7F4FD84
:1018A00002216C48FFF7A2FD4FF4A36001F069FA32
:1018B0001C2001F066FA0C2001F063FA4FF48C70E2
:1018C00001F05FFA40F2023001F05BFA40F20630BC
:1018D00001F057FA40F21A5001F053FA40F20E604C
:1018E00001F04FFA00215C48FFF7CEFD00215B4874
:1018F000FFF77CFD40F20A3001F043FA012158481D
:10190000FFF7C2FD03215748FFF7BEFD05215648EA
:10191000FFF76CFD40F20E5001F033FA01215348FD
:10192000FFF7B2FD07215248FFF7AEFD03215148F2
:10193000FFF75CFD40F2025001F023FA01214E480E
:10194000FFF7A2FD07214D48FFF79EFD03214C48FC
:10195000FFF74CFD4FF4407001F013FA01214948A4
:10196000FFF792FD07214848FFF78EFD0321474806
:10197000FFF73CFD00214648FFF738FD4548FEF7DC
:1019800089FE4548FEF7BAFE1B210020FEF72CFF1A
:1019900010210120FEF728FF18210220FEF724FF66
:1019A00010210320FEF720FFFEF702FF01223B4932
:1019B000054801F0F5F9044BD3F87031024A23F4DD
:1019C0000043C2F870316BE000800D4000366E01BC
:1019D00000C00F40186C008014390014000008404B
:1019E00014EA00041468008010E0004014FB00803A
:1019F0001CE0078024EB00801C30008024F0008075
:101A00001C31008014270080142600803CEB0080ED
:101A10003C69008018FA00801864008024790080F6
:101A2000186E008028E6008028E007801C6A00808D
:101A30002CE600802CE007801C6C008028F60080DB
:101A400028F007801C6E008038F307803832008051
:101A500020E207802068008024E0078024260080A0
:101A600038EC008018F7008038EF008030F90080F3
:101A700030F600803074008030EC008030E9008067
:101A80003067008028E9008028F9008020730080FA
:101A90000C20008020370860283708600D00700097
:101AA0007B4BD3F870317A4A23F40003C2F87031CB
:101AB000774B1B6F764A43F400531367744BD3F88C
:101AC000A030734A23F40053C2F8A030704BD3F80F
:101AD000A03023F4E0336E4A43F48033C2F8A030E0
:101AE0006B4B0022C3F8B020694B0122C3F8C02021
:101AF000674BD3F8A030674A1A4042F21F031343E2
:101B00007B607B6843F400237B60614BD3F87031CA
:101B10005F4A43F04043C2F870315D4A7B68C2F8C7
:101B2000A03000BF5A4BD3F8A030002BFADA0022C5
:101B30005949574801F034F9FEF748FE0122574948
:101B4000534801F02DF9524BD3F8E03023F0030352
:101B50004F4A43F00103C2F8E0304D4BD3F8E03078
:101B60004B4A43F40053C2F8E030494BD3F8E0301D
:101B7000474A43F40013C2F8E030FEF70DFE01229D
:101B80004749434801F00CF9414B1B6A404A43F472
:101B90000053136203214348FFF728FC0021424809
:101BA000FFF724FC00214148FFF720FC00214048BA
:101BB000FFF71CFC364BD3F86031354A23F01F0386
:101BC000C2F860313B4B1B6E3A4A23F07003136638
:101BD000384B1B6E23F00F03364A43F001031366A4
:101BE000344B1B6E334A23F460031366314B1B6E78
:101BF00023F4F8132F4A43F4901313662D4B1B6EF6
:101C00002C4A23F4807313662A4B1B6E294A23F057
:101C100080031366274B1B6E264A23F080731366DE
:101C200000220021244801F0E2F80022032122488A
:101C300001F0DDF8002206211F4801F0D8F800224B
:101C400008211D4801F0D3F800220A211A4801F0AA
:101C5000CEF8002200211848FFF7D8FC00224FF4EC
:101C600000511548FFF7AEFC134B5B69124A23F095
:101C700080535361104B5B690F4A23F0005353614B
:101C80000E4B0F4A1A6000BF0837BD4680BD00BF2B
:101C900000800D4080CFFFFF0D00A0000D00E00090
:101CA0000D0020001872008014390014186C008098
:101CB0001C26008000C00F4000C00A400000002029
:101CC0000046C32380B586B000AF03460A46FB80BA
:101CD00013467B71B7F906301B0A7B61FB8803F062
:101CE0001F033B617B69062B02D90C48FEF756FBAC
:101CF0007B699A000A4B1344FB6003223B6902FA9A
:101D000003F17A793B6902FA03F31A46F86801F0A5
:101D1000AAF800BF1837BD4680BD00BFA8360860CE
:101D200068C00F4080B584B002AF40F2024001F0BD
:101D3000C2F801233B7100237B710023BB713B1D63
:101D40001A4609211848FEF7D7FD00230193174BC7
:101D50000093002300220521154801F0BBF8002361
:101D60000193144B0093002300220221124801F03A
:101D7000B1F841F2B00301930C4B00930023002211
:101D800005210B4801F0C3F841F2B0030193094B60
:101D90000093002300220221074801F0B8F800BF99
:101DA0000837BD4680BD00BF00801B40D0821F4069
:101DB000E0801F4060831F4070811F4010B5174AAC
:101DC0000020174901F042F94FF480734FF480620C
:101DD0000021124801F0D7F8124A1349012001F0FE
:101DE00035F94FF480734FF4806200210D4801F003
:101DF000CAF80E4B1B68022B0EDD0D4A02200A4961
:101E000001F024F94FF480734FF4806200210848F8
:101E1000BDE8104001F0B7B810BD00BF6000002061
:101E2000403708609C000020423708603C3708605B
:101E3000D80000202DE9F041D56880460E461446B2
:101E4000EB02576905D545F01005384601F0A2FAB6
:101E5000A061124B2B408BB1A169384601F0A3FA67
:101E6000002806DAE3684FF0FF3043F08003E360B8
:101E700011E025F4003525F01005E56032464146B5
:101E8000384601F096FA20F00041761AA1690E4416
:101E9000A6610028E6D1BDE8F08100BF1000020075
:101EA000F8B5044638B90B4B05460B4E1F68A742E0
:101EB00005DC2846F8BDBDE8F84001F05AB93046C7
:101EC000013401F056F9002806F13C0618BF4FF026
:101ED000FF35ECE73C370860600000202DE9F8434F
:101EE000C66804463B4B0D46904633401BB902275B
:101EF0003846BDE8F883D0F81490484601F04DFA12
:101F000007460028F3D1B8F1010F2CD0B8F1020F29
:101F10002ED0B8F1000FEAD1002DE8DBB00404D5D3
:101F20002368E26A9A4238BFE362A169A9420EDCE3
:101F30002368E26A934238BF134622695818801A10
:101F4000A84204DB206B01EB000CAC4531DC002324
:101F500046F02006A562C4E9013326F4032626F0E4
:101F60004006E660C4E7204600F036F80544D3E7B3
:101F7000484601F00FFAB0F1000CE26804DA42F0D2
:101F800080020127E260B3E72168A369E06A814229
:101F90002CBF5B181B1821699206A3EB010303D524
:101FA000A26A9342B8BF13466345ACBFED186544BF
:101FB000B2E76D1AB10744BF281AA060F10726F0F6
:101FC000200644BF9B1AEB1A154448BF6360256086
:101FD000C3E700BF03001000C3689A0705D10E4B8A
:101FE00021224FF0FF301A60704703F020021B03DC
:101FF00009D512B1806A01387047036882690069A7
:102000001344181AF7E70AB1806A704703688269B7
:1020100000691344181A70475C00002080B586B030
:1020200000AFF860B9603B601346FB7100237B6131
:1020300000237B611CE0BB681B6801337F2B08D940
:10204000BB681B681946F868FEF7B4F9BB68002244
:102050001A60BB681B681A46FB681344FA791A7049
:10206000BB681B685A1CBB681A607B6901337B61C3
:102070007A693B689A42DEDB00BF00BF1837BD4675
:1020800080BD0FB480B582B000AF00237B6007F144
:1020900014033B6039683869FEF7B6F978607B68ED
:1020A00018460837BD46BDE8804004B0704780B48C
:1020B00085B000AF786039600023FB600023FB72BD
:1020C00020E07B681B685A1C7B681A607B681B6871
:1020D0001B78BB72BB7A2F2B0DD9BB7A392B0AD850
:1020E000FA6813469B0013445B001A46BB7A1344FC
:1020F000303BFB6006E07B681B685A1E7B681A60F9
:102100000123FB72FB7A002BDBD0FB6818461437E7
:10211000BD465DF8047B704780B489B000AFF860BD
:10212000B9607A60FB681B68FB610623BB61002312
:10213000FB75FB690133FB61FB691B782E2B24D1F6
:102140000023BB610023FB751BE0FB690133FB61CE
:10215000FB691B78BB75BB7D2F2B0DD9BB7D392B44
:102160000AD8BA6913469B0013445B001A46BB7D2C
:102170001344303BBB6104E0FB69013BFB6101237D
:10218000FB75FB7D002BE0D002E0FB69013BFB61AE
:10219000FB68FA691A60BB6918462437BD465DF8CA
:1021A000047B704780B485B000AF0346FB71002309
:1021B000FB60FB796F2B08D0FB79622B05D0FB7994
:1021C000702B02D0FB79752B01D10123FB60FB68DA
:1021D00018461437BD465DF8047B704780B485B05F
:1021E00000AF0346FB710023FB60FB79642B02D038
:1021F000FB79692B01D10123FB60FB68184614377A
:10220000BD465DF8047B704790B585B000AFF860BF
:10221000B9607A60FB70BA687B68D31A7C6A202246
:10222000F96AB86AA04708E03B6A5A1E3A621A780F
:102230007C6A0123F96AB86AA0473B6A1B78002BC5
:10224000F2D100BF00BF1437BD4690BD90B585B038
:1022500000AFF860B9607A60FB70BA687B68D31A27
:102260007C6A2022F96AB86AA04708E03B6A5A1ED5
:102270003A621A787C6A0123F96AB86AA0473B6A15
:102280001B78002BF2D100BF00BF1437BD4690BDB4
:1022900080B485B000AF0346FB710023FB60FB797F
:1022A000662B02D0FB79462B01D10123FB60FB6832
:1022B00018461437BD465DF8047B704780B485B07E
:1022C00000AF0346FB710023FB60FB79782B02D043
:1022D000FB79582B01D10123FB60FB6818461437AA
:1022E000BD465DF8047B704780B485B000AF786070
:1022F0007B681B68FB60FB680133FB60FB681B7835
:10230000FB72FB7A682BF6D0FB7A6C2BF3D0FB6860
:10231000013BFB607B68FA681A6000BF1437BD465A
:102320005DF8047B704780B485B000AF0346FB7155
:10233000FB796F2B02D10823FB730DE0FB79622B35
:1023400002D10223FB7307E0FB79702B02D110232B
:10235000FB7301E00A23FB73FB7B18461437BD4671
:102360005DF8047B704780B48FB000AFF860B9604F
:102370007A603B600023FB62FB68BB62BB6A5A1C4D
:10238000BA6200221A7000237B6000237B62002364
:102390003B620023FB6100237B630023BB610023BE
:1023A0003B6300237B61BB681B687B637B6B002BFB
:1023B00030D1BB6A30221A70FB6A0133FB62FB6AC0
:1023C0002CE07A6B3B68B2FBF3F3BB61BB693A6804
:1023D00002FB03F37A6BD31A3B633B6B092B03D8E5
:1023E0003B6B30333B630AE097F84030002B01D061
:1023F000412200E061223B6B13440A3B3B63BB6913
:102400007B63BB6A5A1CBA623A6BD2B21A70FB6A1F
:102410000133FB627B6B002BD3D1FB6A18463C3740
:10242000BD465DF8047B704790B5A1B004AFF8607D
:10243000B9607A603B6000237B6600233B66002323
:102440003B620023FB650023BB61FB68BB64BB6C84
:102450001B78002B00F03881BB6C1B7887F85B3051
:1024600097F85B30252B0BD097F85B2007F1200104
:102470003C6801237868A047BB6C0133BB6422E150
:10248000012387F86B3007F1080207F14803114672
:102490001846FFF70CFE786507F1080107F14803BD
:1024A00000221846FFF738FE386507F14803184642
:1024B000FFF71AFFBB6C0133BB64BB6C1B7887F85A
:1024C0005B3097F85B301846FFF788FE0346012B18
:1024D00025D1BB681A1DBA601B68FB6107F11C019E
:1024E00007F1240097F86B3000930A230122FFF7CD
:1024F0003AFF386607F124023B6E13447B663A6E5E
:1025000007F1200303937B6802933B6801937B6E82
:1025100000930023796D0020FFF776FED0E097F856
:102520005B301846FFF7B4FE0346012B06D1BB68AB
:10253000073323F007030833BB60C1E097F85B3033
:102540001846FFF7BBFE0346012B2ED197F85B30F0
:10255000782B02D1002387F86B30BB681A1DBA6054
:102560001B68BB6107F1180107F1240097F86B3075
:10257000009310230022FFF7F6FE386607F12402CD
:102580003B6E13447B663A6E97F86B1007F120039D
:1025900003937B6802933B6801937B6E00930B4629
:1025A000796D0020FFF752FE8AE097F85B301846FD
:1025B000FFF7F8FD0346012B3ED197F85B30702BF7
:1025C0000DD1BB681A1DBA601B687B6107F114014D
:1025D00007F118030422184600F0B9FC04E0BB68B8
:1025E0001A1DBA601B68BB6197F85B301846FFF78D
:1025F0009AFE0346FB6507F1180107F1240097F8DE
:102600006B300093FB6D0022FFF7ADFE386607F1DB
:1026100024023B6E13447B663A6E07F1200303935A
:102620007B6802933B6801937B6E00930023796D76
:102630000020FFF7E9FD43E097F85B30632B0DD1F5
:10264000BB681A1DBA601B68FB64FB6CDAB207F149
:1026500020013C6801237868A04731E097F85B309F
:10266000732B25D1BB681A1DBA601B68FB66FB6E15
:10267000002B25D0F86E00F0A5FC03463B667A6D72
:102680003B6ED31A07F120013C6820227868A047EE
:1026900009E0FB6E5A1CFA661A7807F120013C68C3
:1026A00001237868A047FB6E1B78002BF1D107E06F
:1026B00097F85B2007F120013C6801237868A04768
:1026C000BB6C0133BB64C2E600BF3B6A184674377B
:1026D000BD4690BD08B5FDF760FE08BD08B5FDF725
:1026E0005CFE08BD08B5FDF758FE08BD08B5FDF74E
:1026F00054FE08BD08B5FDF750FE08BD08B5FDF74E
:102700004CFE08BD08B5FDF748FE08BD08B5FDF74D
:1027100044FE08BD08B5FDF740FE08BD08B5FDF74D
:102720003CFE08BD08B5FDF738FE08BD08B5FDF74D
:1027300034FE08BD08B5FDF730FE08BD08B5FDF74D
:102740002CFE08BD08B5FDF728FE08BD08B5FDF74D
:1027500024FE08BD08B5FDF720FE08BD08B5FDF74D
:102760001CFE08BD08B5FDF718FE08BD08B5FDF74D
:1027700014FE08BD08B5FEF7E7F908BD08B5FEF779
:10278000F7F908BD08B5FEF707FA08BD08B5FEF76A
:1027900017FA08BD08B5FEF727FA08BD08B5FEF719
:1027A00037FA08BD08B5FEF747FA08BD08B5FEF7C9
:1027B00057FA08BD08B5FDF7F0FD08BD08B5FDF7EF
:1027C000ECFD08BD08B5FDF7E8FD08BD08B5FDF74F
:1027D000E4FD08BD08B5FDF7E0FD08BD08B5FDF74F
:1027E000DCFD08BD08B5FDF7D8FD08BD08B5FDF74F
:1027F000D4FD08BD08B5FDF7D0FD08BD08B5FDF74F
:10280000CCFD08BD08B5FDF7C8FD08BD08B5FDF74E
:10281000C4FD08BD08B5FDF7C0FD08BD08B5FDF74E
:10282000BCFD08BD08B5FDF7B8FD08BD08B5FDF74E
:10283000B4FD08BD08B5FDF7B0FD08BD08B5FDF74E
:10284000ACFD08BD08B5FDF7A8FD08BD08B5FDF74E
:10285000A4FD08BD08B5FDF7A0FD08BD08B5FDF74E
:102860009CFD08BD08B5FDF798FD08BD08B5FDF74E
:1028700094FD08BD08B5FDF790FD08BD08B5FDF74E
:102880008CFD08BD08B5FDF788FD08BD08B5FDF74E
:1028900084FD08BD08B5FDF780FD08BD08B5FDF74E
:1028A0007CFD08BD08B5FDF778FD08BD08B5FDF74E
:1028B00074FD08BD08B5FDF770FD08BD08B5FDF74E
:1028C0006CFD08BD08B5FDF768FD08BD08B5FDF74E
:1028D00064FD08BD08B5FDF760FD08BD08B5FDF74E
:1028E0005CFD08BD08B5FDF758FD08BD08B5FDF74E
:1028F00054FD08BD08B5FDF750FD08BD08B5FDF74E
:102900004CFD08BD08B5FDF748FD08BD08B5FDF74D
:1029100044FD08BD08B5FDF740FD08BD08B5FDF74D
:102920003CFD08BD08B5FDF738FD08BD08B5FDF74D
:1029300034FD08BD08B5FDF730FD08BD08B5FDF74D
:102940002CFD08BD08B5FDF728FD08BD08B5FDF74D
:1029500024FD08BD08B5FDF720FD08BD08B5FDF74D
:102960001CFD08BD08B5FDF718FD08BD08B5FDF74D
:1029700014FD08BD08B5FDF710FD08BD08B5FDF74D
:102980000CFD08BD08B5FDF708FD08BD08B5FDF74D
:1029900004FD08BD08B5FDF700FD08BD08B5FDF74D
:1029A000FCFC08BD08B5FDF7F8FC08BD08B5FDF74F
:1029B000F4FC08BD08B5FDF7F0FC08BD08B5FDF74F
:1029C000ECFC08BD08B5FDF7E8FC08BD08B5FDF74F
:1029D000E4FC08BD08B5FDF7E0FC08BD08B5FDF74F
:1029E000DCFC08BD08B5FDF7D8FC08BD08B5FDF74F
:1029F000D4FC08BD08B5FDF7D0FC08BD08B5FDF74F
:102A0000CCFC08BD08B5FDF7C8FC08BD08B5FDF74E
:102A1000C4FC08BD08B5FDF7C0FC08BD08B5FDF74E
:102A2000BCFC08BD08B5FDF7B8FC08BD08B5FDF74E
:102A3000B4FC08BD08B5FDF7B0FC08BD08B5FDF74E
:102A4000ACFC08BD08B5FDF7A8FC08BD08B5FDF74E
:102A5000A4FC08BD08B5FDF7A0FC08BD08B5FDF74E
:102A60009CFC08BD08B5FDF798FC08BD08B5FDF74E
:102A700094FC08BD08B5FDF790FC08BD08B5FDF74E
:102A80008CFC08BD08B5FDF788FC08BD08B5FDF74E
:102A900084FC08BD08B5FDF780FC08BD08B5FDF74E
:102AA0007CFC08BD08B5FDF778FC08BD08B5FDF74E
:102AB00074FC08BD08B5FDF770FC08BD08B5FDF74E
:102AC0006CFC08BD08B5FDF768FC08BD08B5FDF74E
:102AD00064FC08BD08B5FDF760FC08BD08B5FDF74E
:102AE0005CFC08BD08B5FDF758FC08BD08B5FDF74E
:102AF00054FC08BD08B5FDF750FC08BD08B5FDF74E
:102B00004CFC08BD08B5FDF748FC08BD08B5FDF74D
:102B100044FC08BD08B5FDF740FC08BD08B5FDF74D
:102B20003CFC08BD08B5FDF738FC08BD08B5FDF74D
:102B300034FC08BD08B5FDF730FC08BD08B5FDF74D
:102B40002CFC08BD08B5FDF728FC08BD08B5FDF74D
:102B500024FC08BD08B5FDF720FC08BD08B5FDF74D
:102B60001CFC08BD08B5FDF718FC08BD08B5FDF74D
:102B700014FC08BD08B5FDF710FC08BD08B5FDF74D
:102B80000CFC08BD08B5FDF708FC08BD08B5FDF74D
:102B900004FC08BD04207146084202D0EFF309800E
:102BA00001E0EFF3088081690A884BF6AB639A4233
:102BB00000D0FEE70231816120210160704700BF33
:102BC00080B48BB000AFF860B9607A60FB687B615D
:102BD0007B6953E8003F3B613B697B62BB68DA433A
:102BE0007B6A13407A6813437B627B6A3B62FB68B3
:102BF000FB61F9693A6A41E80023BB61BB69002BBC
:102C0000E4D100BF00BF2C37BD465DF8047B7047A0
:102C100080B582B000AF0346FB80B7F906300321D0
:102C20001846FDF713FE00BF0837BD4680BD80B5CE
:102C300084B000AFF860B9601346FB71FB791A46A7
:102C4000B968F868FDF7CEFE00BF1037BD4680BDFD
:102C500080B400AF00BFBD465DF8047B704780B50F
:102C600086B000AFF860B9607A603B6043F22153F0
:102C7000FB82FB681B78012B08D1FB680C333A6898
:102C80007968184600F039F80346FB82FB8A18463B
:102C90001837BD4680BD80B586B000AFF860B9601A
:102CA0007A60FB68002BFCD0BB68002BFCD07B68F3
:102CB000002BFCD0FB687B617B691B683B613B6937
:102CC000002BFCD07B68BA6879693869FFF7C7FFC9
:102CD000034618461837BD4680BD80B584B000AFA6
:102CE000F860B9607A607A68B968F868FFF7D3FF6E
:102CF000034618461037BD4680BD80B586B000AF8C
:102D0000F860B9607A60FB68002BFCD0BB68002BD0
:102D1000FCD07B68002BFCD0FB687B617B697A6808
:102D2000B9681846FEF75CF9034618461837BD46E1
:102D300080BD80B48BB000AFF860B9607A60FB688A
:102D40007B617B6953E8003F3B613B697B62BB6809
:102D5000DA437B6A13407A6813437B627B6A3B6287
:102D6000FB68FB61F9693A6A41E80023BB61BB6912
:102D7000002BE4D100BF00BF2C37BD465DF8047BBB
:102D8000704780B582B000AF0346FB80B7F90630CC
:102D900000211846FEF7C6FB00BF0837BD4680BDC0
:102DA00080B485B000AFF860B9601346FB71FB7961
:102DB000002B0BD0BB681B0CC3F30B02FB68134446
:102DC00004331A464FF4803313600AE0BB681B0CCF
:102DD000C3F30B02FB68134408331A464FF48033E5
:102DE000136000BF1437BD465DF8047B704780B4A4
:102DF00085B000AF78600B46FB701346BB70FB7864
:102E0000032B12D97B685A68FB78032101FA03F37C
:102E1000DB431340FB60BB7803F00302FB789A406E
:102E2000FB681A437B685A6011E07B685A68FB783C
:102E3000072101FA03F3DB431340FB60BB7803F087
:102E40000702FB789A40FB681A437B685A6000BF10
:102E50001437BD465DF8047B704780B500AFFEF7C0
:102E6000F7FB00BF80BD80B48BB000AFF860B960E5
:102E70007A60FB687B617B6953E8003F3B613B699B
:102E80007B62BB68DA437B6A13407A6813437B62D8
:102E90007B6A3B62FB68FB61F9693A6A41E800239F
:102EA000BB61BB69002BE4D100BF00BF2C37BD461E
:102EB0005DF8047B704780B582B000AF0346FB80AD
:102EC000B7F9063003211846FEF7FCFE00BF0837AD
:102ED000BD4680BD80B485B000AFF860B9607A604F
:102EE0003B60BB6803F00701FB691B0103F01002A4
:102EF000FB680A431A607B68002B02D07B683A6843
:102F00001A6000BF1437BD465DF8047B704780B47B
:102F100085B000AFF860B9607A603B60BB69002B98
:102F200002D0BB69FA691A6000BF1437BD465DF86C
:102F3000047B704780B500AFFEF7F4FE00BF80BD94
:102F400008B5FEF73BFFBDE80840FDF707BB00F002
:102F5000EBB900F003BAA8B14FF0805340F80C3C35
:102F600050F8042C72B11368B3F1805F0AD150F8A5
:102F7000083C516803330B4440F8083C936840F820
:102F8000043CEDE7704770B5C468A50708D0B2F5FA
:102F9000007F11D0B2F5806F04D0B2F5807F0BD0E6
:102FA000012008E000F124010123224301610160B6
:102FB000C361C260002070BD5E1E6FF07F45AE42EF
:102FC000F3D3EDE7431C10B58207044614D1204625
:102FD00054F8042BA2F1013121EA020111F0803FE3
:102FE000F5D0D1B281B112F47F4F0BD012F47F0F24
:102FF00014BF2046033003E010F8012B002AE3D170
:10300000C01A10BD0230FBE70130F9E7C3688269DE
:1030100023F0200310B5C3600446836A9A420ED0A1
:1030200000F048F8E36823F4405323F0100343F022
:103030001003E360A36AA3612369E3622360E3688A
:1030400023F4804323F04003E36010BD70B50D46C8
:1030500006461046144600F056F82B78722B17D00F
:10306000772B18D0612B23D1082348F2020215F8E0
:10307000011F2B2912D0622915D01B07E26066615F
:1030800004D5022200212046FEF728FF204670BD0D
:1030900000230122EBE704230222E8E742F00302C7
:1030A00043F00203E3E742F0040243F00103DEE7EA
:1030B0000024EBE738B5016804460569C36AC068B7
:1030C00020F40022E26000F08202022A02D04FF0D7
:1030D000FF3038BD10F48030FBD0994238BF19461C
:1030E0008D4208D1E3680020E56223F48033256037
:1030F000A060E360EDE72246491B2846FEF79AFEF2
:103100000028EFD0E3E7F0B5C46889B00546A10711
:1031100022D0220718D4D0E90467FEF7C1FE384652
:1031200000F035F9230502D53046FFF714FFA40D52
:10313000A40514F1A54F07D12022296A684600F0A2
:1031400035F9684600F00BF83C2200212846FFF7CD
:1031500000FF002009B0F0BD4FF0FF30FAE710B5D6
:103160000446FFF72FFF01462046BDE8104000F05F
:1031700017B9C36870B513F00306044611D09B0657
:1031800011D5856AFFF742FFE368204623F44053D8
:10319000E360FFF78FFF0022064629462046FEF730
:1031A0009DFE304670BD816905680D4401696D1A48
:1031B000EAE75FF0000C30B51C0022D112006FD09E
:1031C000914206D305460846002100F06FF80446F8
:1031D000284600F06BF80A462146BDE830401CF056
:1031E000404F08BF704703D54942404261F100019A
:1031F0005FEA8C0C38BF70475B42524263F10003B8
:10320000704742D41C0C04BF1B040CF1100C13F0CB
:103210007F4F04BF1B020CF1080C13F0704F04BF6A
:103220001B010CF1040C13F0404F04BF0CF1020C15
:103230005FEA83035CBF0CF1010C5B00CCF1200E54
:1032400022FA0EF4234302FA0CF200FA0CF520FAEB
:103250000EF001FA0CF4204321FA0EF114461A463E
:1032600000F024F8A4FB0023AA1A71EB03033CBF6F
:103270001B190138CCF1200E22FA0CF203FA0EF4DD
:10328000224323FA0CF30021A7E7821A71EB030310
:103290003CBF02460B464FF0000141F100009CE7A5
:1032A00000200021BDE8304000F03DB80423B1EB20
:1032B000122F09D2090241EA10610002013B08BF46
:1032C0007047B1EB122FF5D30018494134BF91423A
:1032D000891A4041494134BF9142891A40414941CC
:1032E00034BF9142891A4041494134BF9142891A01
:1032F0004041494134BF9142891A4041494134BF5C
:103300009142891A4041494134BF9142891A404152
:10331000494134BF9142891A4041A3F1010313F09E
:103320000F0FD2D17047704740EA0103DB07034615
:103330000CD40346043A22BF51F804CB43F804CB23
:10334000B2F10402F7D2043208BF7047013A24BF39
:1033500011F801CB03F801CBF8D87047034613F0FE
:10336000030F0ED101F0FF0141EA012141EA0141C1
:10337000043A24BF43F8041BB2F10402F9D202F16B
:103380000402013A24BF03F8011BFAE770474FF02B
:10339000FF3070474FF0FF3070474FF0FF307047FD
:1033A0004FF0FF3070474FF0FF3070474FF0FF3065
:1033B000704710467047FFFF415353455254204514
:1033C00052524F522022202573200A0066736C5FF0
:1033D000636C6F636B2E633A313932203A2021627D
:1033E00079706173735874616C4F736300FFFFFFF2
:1033F0000000000000801B4000C01B4000001C407B
:1034000000401C4000000C40FFFF1A011E001A0281
:103410000C031E0166736C5F6770696F2E633A362A
:1034200030203A20696E7374616E6365203C2041E0
:10343000525241595F53495A4528735F6770696F0B
:1034400042617365732900FF66736C5F6770696F13
:103450002E633A313137203A2070696E203C203398
:10346000325500FF66736C5F6C70756172742E6309
:103470003A393138203A204E554C4C20213D2064B9
:103480006174610000000000004018400080184096
:1034900000C0184000001940004019400080194049
:1034A00000C0194000001A4066736C5F616461706F
:1034B0007465725F6C70756172742E633A36393858
:1034C000203A204E554C4C20213D2068616E646CA2
:1034D0006500000066736C5F616461707465725FA3
:1034E0006C70756172742E633A363939203A204E09
:1034F000554C4C20213D20646174610066736C5F03
:10350000616461707465725F6C70756172742E6352
:103510003A373030203A206C656E677468203E2060
:10352000305500FF626F6172642E633A3337352085
:103530003A2021286E6F6E4361636865537461722F
:103540007420252073697A6529000000626F61721A
:10355000642E633A333736203A2073697A65203D0A
:103560003D202875696E7433325F74292831203C00
:103570003C20692900000000626F6172642E633A8A
:10358000333737203A2069203E3D203500FFFFFFCA
:10359000443A5C494D5852543130353045564B42CF
:1035A0005F426F6F746C6F616465725C4244313569
:1035B000355F505F56315F305F305C4D63755870DA
:1035C000726573736F5C65766B62696D7872743166
:1035D0003035305F696C65645F626C696E6B795C15
:1035E000647269766572732F66736C5F636C6F6368
:1035F0006B2E683A31333835203A2062757379532F
:1036000068696674203C3D2043434D5F4E4F5F42E6
:103610005553595F5741495400FFFFFF443A5C49F5
:103620004D5852543130353045564B425F426F6FE2
:10363000746C6F616465725C42443135355F505F14
:1036400056315F305F305C4D6375587072657373CF
:103650006F5C65766B62696D787274313035305F9E
:10366000696C65645F626C696E6B795C64726976C3
:103670006572732F66736C5F636C6F636B2E683A51
:1036800031343337203A2062757379536869667430
:10369000203C3D2043434D5F4E4F5F425553595FA1
:1036A0005741495400FFFFFF443A5C494D5852547A
:1036B0003130353045564B425F426F6F746C6F61ED
:1036C0006465725C42443135355F505F56315F301E
:1036D0005F305C4D63755870726573736F5C6576AF
:1036E0006B62696D787274313035305F696C656416
:1036F0005F626C696E6B795C647269766572732F58
:1037000066736C5F636C6F636B2E683A313437316C
:10371000203A20696E646578203C3D2036554C0087
:103720006400000000000000010000000000000034
:103730000100000000000000000000000300000085
:04374000720077009C
:0437440000A4781F46
:040000056008030587
:00000001FF
